{
  "contractName": "Lottery",
  "abi": [
    {
      "inputs": [],
      "stateMutability": "nonpayable",
      "type": "constructor"
    },
    {
      "anonymous": false,
      "inputs": [
        {
          "indexed": false,
          "internalType": "uint8[5]",
          "name": "winningNumbers",
          "type": "uint8[5]"
        },
        {
          "indexed": false,
          "internalType": "address",
          "name": "winner",
          "type": "address"
        }
      ],
      "name": "LotteryDrawn",
      "type": "event"
    },
    {
      "anonymous": false,
      "inputs": [
        {
          "indexed": true,
          "internalType": "address",
          "name": "buyer",
          "type": "address"
        },
        {
          "indexed": false,
          "internalType": "uint256",
          "name": "ticketId",
          "type": "uint256"
        },
        {
          "indexed": false,
          "internalType": "uint8[5]",
          "name": "numbers",
          "type": "uint8[5]"
        }
      ],
      "name": "TicketPurchased",
      "type": "event"
    },
    {
      "inputs": [],
      "name": "MAX_TICKETS_PER_USER",
      "outputs": [
        {
          "internalType": "uint256",
          "name": "",
          "type": "uint256"
        }
      ],
      "stateMutability": "view",
      "type": "function",
      "constant": true
    },
    {
      "inputs": [],
      "name": "manager",
      "outputs": [
        {
          "internalType": "address",
          "name": "",
          "type": "address"
        }
      ],
      "stateMutability": "view",
      "type": "function",
      "constant": true
    },
    {
      "inputs": [],
      "name": "prizePool",
      "outputs": [
        {
          "internalType": "uint256",
          "name": "",
          "type": "uint256"
        }
      ],
      "stateMutability": "view",
      "type": "function",
      "constant": true
    },
    {
      "inputs": [],
      "name": "ticketPrice",
      "outputs": [
        {
          "internalType": "uint256",
          "name": "",
          "type": "uint256"
        }
      ],
      "stateMutability": "view",
      "type": "function",
      "constant": true
    },
    {
      "inputs": [
        {
          "internalType": "uint256",
          "name": "",
          "type": "uint256"
        }
      ],
      "name": "tickets",
      "outputs": [
        {
          "internalType": "uint256",
          "name": "id",
          "type": "uint256"
        },
        {
          "internalType": "address",
          "name": "owner",
          "type": "address"
        }
      ],
      "stateMutability": "view",
      "type": "function",
      "constant": true
    },
    {
      "inputs": [
        {
          "internalType": "address",
          "name": "",
          "type": "address"
        }
      ],
      "name": "userTicketCount",
      "outputs": [
        {
          "internalType": "uint256",
          "name": "",
          "type": "uint256"
        }
      ],
      "stateMutability": "view",
      "type": "function",
      "constant": true
    },
    {
      "inputs": [],
      "name": "addFundsToPrizePool",
      "outputs": [],
      "stateMutability": "payable",
      "type": "function",
      "payable": true
    },
    {
      "inputs": [
        {
          "internalType": "uint8[5]",
          "name": "numbers",
          "type": "uint8[5]"
        }
      ],
      "name": "buyTicket",
      "outputs": [],
      "stateMutability": "payable",
      "type": "function",
      "payable": true
    },
    {
      "inputs": [],
      "name": "drawLottery",
      "outputs": [],
      "stateMutability": "nonpayable",
      "type": "function"
    }
  ],
  "bytecode": "0x6080604052662386f26fc1000060015534801561001a575f80fd5b50335f806101000a81548173ffffffffffffffffffffffffffffffffffffffff021916908373ffffffffffffffffffffffffffffffffffffffff1602179055505f60028190555061143d8061006e5f395ff3fe608060405260043610610085575f3560e01c8063652826e011610058578063652826e014610130578063719ce73e1461015a578063cb87ce6714610184578063cc957f28146101c0578063df9b05b8146101dc57610085565b80631209b1f61461008957806327e605ec146100b3578063481c6a75146100c957806350b44712146100f3575b5f80fd5b348015610094575f80fd5b5061009d6101e6565b6040516100aa9190610b5d565b60405180910390f35b3480156100be575f80fd5b506100c76101ec565b005b3480156100d4575f80fd5b506100dd61043c565b6040516100ea9190610bb5565b60405180910390f35b3480156100fe575f80fd5b5061011960048036038101906101149190610c05565b61045f565b604051610127929190610c30565b60405180910390f35b34801561013b575f80fd5b506101446104ad565b6040516101519190610b5d565b60405180910390f35b348015610165575f80fd5b5061016e6104b2565b60405161017b9190610b5d565b60405180910390f35b34801561018f575f80fd5b506101aa60048036038101906101a59190610c81565b6104b8565b6040516101b79190610b5d565b60405180910390f35b6101da60048036038101906101d59190610e20565b6104cd565b005b6101e4610701565b005b60015481565b5f8054906101000a900473ffffffffffffffffffffffffffffffffffffffff1673ffffffffffffffffffffffffffffffffffffffff163373ffffffffffffffffffffffffffffffffffffffff1614610279576040517f08c379a000000000000000000000000000000000000000000000000000000000815260040161027090610ecb565b60405180910390fd5b5f600380549050116102c0576040517f08c379a00000000000000000000000000000000000000000000000000000000081526004016102b790610f33565b60405180910390fd5b5f6102c96107ea565b90505f6102d58261087d565b90505f73ffffffffffffffffffffffffffffffffffffffff168173ffffffffffffffffffffffffffffffffffffffff161461035f575f4790508173ffffffffffffffffffffffffffffffffffffffff166108fc8290811502906040515f60405180830381858888f19350505050158015610351573d5f803e3d5ffd5b505f600281905550506103f2565b5f6002544761036e9190610f7e565b90505f60646028836103809190610fb1565b61038a919061101f565b90505f8054906101000a900473ffffffffffffffffffffffffffffffffffffffff1673ffffffffffffffffffffffffffffffffffffffff166108fc8290811502906040515f60405180830381858888f193505050501580156103ee573d5f803e3d5ffd5b5050505b60035f6103ff91906109f8565b7f7cb8f1f029ed5ad4f2063451e649ad45b36f31cf60bca15b3fad24e57c4171f682826040516104309291906110f4565b60405180910390a15050565b5f8054906101000a900473ffffffffffffffffffffffffffffffffffffffff1681565b6003818154811061046e575f80fd5b905f5260205f2090600302015f91509050805f015490806001015f9054906101000a900473ffffffffffffffffffffffffffffffffffffffff16905082565b600581565b60025481565b6004602052805f5260405f205f915090505481565b6001543414610511576040517f08c379a000000000000000000000000000000000000000000000000000000000815260040161050890611165565b60405180910390fd5b600560045f3373ffffffffffffffffffffffffffffffffffffffff1673ffffffffffffffffffffffffffffffffffffffff1681526020019081526020015f205410610591576040517f08c379a0000000000000000000000000000000000000000000000000000000008152600401610588906111cd565b60405180910390fd5b5f6003805490509050600360405180606001604052808381526020013373ffffffffffffffffffffffffffffffffffffffff16815260200184815250908060018154018082558091505060019003905f5260205f2090600302015f909190919091505f820151815f01556020820151816001015f6101000a81548173ffffffffffffffffffffffffffffffffffffffff021916908373ffffffffffffffffffffffffffffffffffffffff160217905550604082015181600201906005610658929190610a19565b50505060045f3373ffffffffffffffffffffffffffffffffffffffff1673ffffffffffffffffffffffffffffffffffffffff1681526020019081526020015f205f8154809291906106a8906111eb565b91905055503373ffffffffffffffffffffffffffffffffffffffff167ff3d5e1c980b52596ccf30d5550e19b61741ca69c75af692a107761a907a5ea2d82846040516106f5929190611232565b60405180910390a25050565b5f8054906101000a900473ffffffffffffffffffffffffffffffffffffffff1673ffffffffffffffffffffffffffffffffffffffff163373ffffffffffffffffffffffffffffffffffffffff161461078e576040517f08c379a000000000000000000000000000000000000000000000000000000000815260040161078590610ecb565b60405180910390fd5b5f34116107d0576040517f08c379a00000000000000000000000000000000000000000000000000000000081526004016107c7906112c9565b60405180910390fd5b3460025f8282546107e191906112e7565b92505081905550565b6107f2610ab0565b6107fa610ab0565b5f5b60058160ff16101561087557606442448360405160200161081f9392919061136e565b604051602081830303815290604052805190602001205f1c61084191906113aa565b828260ff1660058110610857576108566113da565b5b602002019060ff16908160ff168152505080806001019150506107fc565b508091505090565b5f805f90505b6003805490508110156109795761091c600382815481106108a7576108a66113da565b5b905f5260205f209060030201600201600580602002604051908101604052809291908260058015610911576020028201915f905b82829054906101000a900460ff1660ff16815260200190600101906020825f010492830192600103820291508084116108db5790505b505050505084610983565b1561096c5760038181548110610935576109346113da565b5b905f5260205f2090600302016001015f9054906101000a900473ffffffffffffffffffffffffffffffffffffffff1691505061097e565b8080600101915050610883565b505f90505b919050565b5f805f90505b60058160ff1610156109ec57828160ff16600581106109ab576109aa6113da565b5b602002015160ff16848260ff16600581106109c9576109c86113da565b5b602002015160ff16146109df575f9150506109f2565b8080600101915050610989565b50600190505b92915050565b5080545f8255600302905f5260205f2090810190610a169190610ad2565b50565b826005601f01602090048101928215610a9f579160200282015f5b83821115610a7157835183826101000a81548160ff021916908360ff16021790555092602001926001016020815f01049283019260010302610a34565b8015610a9d5782816101000a81549060ff02191690556001016020815f01049283019260010302610a71565b505b509050610aac9190610b24565b5090565b6040518060a00160405280600590602082028036833780820191505090505090565b5b80821115610b20575f8082015f9055600182015f6101000a81549073ffffffffffffffffffffffffffffffffffffffff0219169055600282015f610b179190610b3f565b50600301610ad3565b5090565b5b80821115610b3b575f815f905550600101610b25565b5090565b505f9055565b5f819050919050565b610b5781610b45565b82525050565b5f602082019050610b705f830184610b4e565b92915050565b5f73ffffffffffffffffffffffffffffffffffffffff82169050919050565b5f610b9f82610b76565b9050919050565b610baf81610b95565b82525050565b5f602082019050610bc85f830184610ba6565b92915050565b5f604051905090565b5f80fd5b610be481610b45565b8114610bee575f80fd5b50565b5f81359050610bff81610bdb565b92915050565b5f60208284031215610c1a57610c19610bd7565b5b5f610c2784828501610bf1565b91505092915050565b5f604082019050610c435f830185610b4e565b610c506020830184610ba6565b9392505050565b610c6081610b95565b8114610c6a575f80fd5b50565b5f81359050610c7b81610c57565b92915050565b5f60208284031215610c9657610c95610bd7565b5b5f610ca384828501610c6d565b91505092915050565b5f80fd5b5f601f19601f8301169050919050565b7f4e487b71000000000000000000000000000000000000000000000000000000005f52604160045260245ffd5b610cf682610cb0565b810181811067ffffffffffffffff82111715610d1557610d14610cc0565b5b80604052505050565b5f610d27610bce565b9050610d338282610ced565b919050565b5f67ffffffffffffffff821115610d5257610d51610cc0565b5b602082029050919050565b5f80fd5b5f60ff82169050919050565b610d7681610d61565b8114610d80575f80fd5b50565b5f81359050610d9181610d6d565b92915050565b5f610da9610da484610d38565b610d1e565b90508060208402830185811115610dc357610dc2610d5d565b5b835b81811015610dec5780610dd88882610d83565b845260208401935050602081019050610dc5565b5050509392505050565b5f82601f830112610e0a57610e09610cac565b5b6005610e17848285610d97565b91505092915050565b5f60a08284031215610e3557610e34610bd7565b5b5f610e4284828501610df6565b91505092915050565b5f82825260208201905092915050565b7f4f6e6c79206d616e616765722063616e2063616c6c20746869732066756e63745f8201527f696f6e2e00000000000000000000000000000000000000000000000000000000602082015250565b5f610eb5602483610e4b565b9150610ec082610e5b565b604082019050919050565b5f6020820190508181035f830152610ee281610ea9565b9050919050565b7f4e6f207469636b657473207075726368617365642e00000000000000000000005f82015250565b5f610f1d601583610e4b565b9150610f2882610ee9565b602082019050919050565b5f6020820190508181035f830152610f4a81610f11565b9050919050565b7f4e487b71000000000000000000000000000000000000000000000000000000005f52601160045260245ffd5b5f610f8882610b45565b9150610f9383610b45565b9250828203905081811115610fab57610faa610f51565b5b92915050565b5f610fbb82610b45565b9150610fc683610b45565b9250828202610fd481610b45565b91508282048414831517610feb57610fea610f51565b5b5092915050565b7f4e487b71000000000000000000000000000000000000000000000000000000005f52601260045260245ffd5b5f61102982610b45565b915061103483610b45565b92508261104457611043610ff2565b5b828204905092915050565b5f60059050919050565b5f81905092915050565b5f819050919050565b61107581610d61565b82525050565b5f611086838361106c565b60208301905092915050565b5f602082019050919050565b6110a78161104f565b6110b18184611059565b92506110bc82611063565b805f5b838110156110ec5781516110d3878261107b565b96506110de83611092565b9250506001810190506110bf565b505050505050565b5f60c0820190506111075f83018561109e565b61111460a0830184610ba6565b9392505050565b7f496e636f727265637420616d6f756e74206f66204554482073656e742e0000005f82015250565b5f61114f601d83610e4b565b915061115a8261111b565b602082019050919050565b5f6020820190508181035f83015261117c81611143565b9050919050565b7f4578636565646564206d6178207469636b6574732070657220757365722e00005f82015250565b5f6111b7601e83610e4b565b91506111c282611183565b602082019050919050565b5f6020820190508181035f8301526111e4816111ab565b9050919050565b5f6111f582610b45565b91507fffffffffffffffffffffffffffffffffffffffffffffffffffffffffffffffff820361122757611226610f51565b5b600182019050919050565b5f60c0820190506112455f830185610b4e565b611252602083018461109e565b9392505050565b7f4d7573742073656e642045544820746f2061646420746f20746865207072697a5f8201527f6520706f6f6c0000000000000000000000000000000000000000000000000000602082015250565b5f6112b3602683610e4b565b91506112be82611259565b604082019050919050565b5f6020820190508181035f8301526112e0816112a7565b9050919050565b5f6112f182610b45565b91506112fc83610b45565b925082820190508082111561131457611313610f51565b5b92915050565b5f819050919050565b61133461132f82610b45565b61131a565b82525050565b5f8160f81b9050919050565b5f6113508261133a565b9050919050565b61136861136382610d61565b611346565b82525050565b5f6113798286611323565b6020820191506113898285611323565b6020820191506113998284611357565b600182019150819050949350505050565b5f6113b482610b45565b91506113bf83610b45565b9250826113cf576113ce610ff2565b5b828206905092915050565b7f4e487b71000000000000000000000000000000000000000000000000000000005f52603260045260245ffdfea2646970667358221220133dc8ff08cf92420f1fa85f6aa135c7391e5452e27dd502abd9ec81dc5f02b464736f6c63430008170033",
  "immutableReferences": {},
  "source": "// SPDX-License-Identifier: MIT\r\npragma solidity ^0.8.0;\r\n\r\ncontract Lottery {\r\n    address public manager;\r\n    uint256 public ticketPrice = 0.01 ether;\r\n    uint256 public constant MAX_TICKETS_PER_USER = 5;\r\n    uint256 public prizePool;\r\n    struct Ticket {\r\n        uint256 id;\r\n        address owner;\r\n        uint8[5] numbers;\r\n    }\r\n\r\n    Ticket[] public tickets;\r\n    mapping(address => uint256) public userTicketCount;\r\n\r\n    event TicketPurchased(address indexed buyer, uint256 ticketId, uint8[5] numbers);\r\n    event LotteryDrawn(uint8[5] winningNumbers, address winner);\r\n\r\n    constructor() {\r\n        manager = msg.sender;\r\n        prizePool = 0;\r\n    }\r\n\r\n    function addFundsToPrizePool() public payable onlyManager {\r\n        require(msg.value > 0, \"Must send ETH to add to the prize pool\");\r\n        prizePool += msg.value;\r\n    }\r\n\r\n    modifier onlyManager() {\r\n        require(msg.sender == manager, \"Only manager can call this function.\");\r\n        _;\r\n    }\r\n\r\n    function buyTicket(uint8[5] memory numbers) public payable {\r\n        require(msg.value == ticketPrice, \"Incorrect amount of ETH sent.\");\r\n        require(userTicketCount[msg.sender] < MAX_TICKETS_PER_USER, \"Exceeded max tickets per user.\");\r\n\r\n        uint256 ticketId = tickets.length;\r\n        tickets.push(Ticket(ticketId, msg.sender, numbers));\r\n        userTicketCount[msg.sender]++;\r\n\r\n        emit TicketPurchased(msg.sender, ticketId, numbers);\r\n    }\r\n\r\n\r\n    function drawLottery() public onlyManager {\r\n        require(tickets.length > 0, \"No tickets purchased.\");\r\n\r\n        uint8[5] memory winningNumbers = generateRandomNumbers();\r\n        address winner = checkForWinner(winningNumbers);\r\n        \r\n        if (winner != address(0)) {\r\n            uint256 prizeAmount = address(this).balance;\r\n            payable(winner).transfer(prizeAmount);\r\n            prizePool = 0;\r\n        } else {\r\n            uint256 sales = address(this).balance - prizePool;\r\n            uint256 managerShare = (sales * 40) / 100;\r\n            payable(manager).transfer(managerShare);\r\n        }\r\n\r\n        delete tickets;\r\n        emit LotteryDrawn(winningNumbers, winner);\r\n    }\r\n\r\n    function generateRandomNumbers() private view returns (uint8[5] memory) {\r\n        uint8[5] memory randomNumbers;\r\n        for (uint8 i = 0; i < 5; i++) {\r\n            randomNumbers[i] = uint8(uint256(keccak256(abi.encodePacked(block.timestamp, block.difficulty, i))) % 100);\r\n        }\r\n        return randomNumbers;\r\n    }\r\n\r\n    function checkForWinner(uint8[5] memory winningNumbers) private view returns (address) {\r\n        for (uint256 i = 0; i < tickets.length; i++) {\r\n            if (compareNumbers(tickets[i].numbers, winningNumbers)) {\r\n                return tickets[i].owner;\r\n            }\r\n        }\r\n        return address(0);\r\n    }\r\n\r\n    function compareNumbers(uint8[5] memory a, uint8[5] memory b) private pure returns (bool) {\r\n        for (uint8 i = 0; i < 5; i++) {\r\n            if (a[i] != b[i]) {\r\n                return false;\r\n            }\r\n        }\r\n        return true;\r\n    }\r\n}\r\n",
  "sourcePath": "D:\\Misc\\Praneeth\\Assignment-5-new\\contracts\\Lottery.sol",
  "compiler": {
    "name": "solc",
    "version": "0.8.23+commit.f704f362.Emscripten.clang"
  },
  "schemaVersion": "3.4.16",
  "updatedAt": "2023-11-25T03:42:13.627Z",
  "networkType": "ethereum",
  "devdoc": {
    "kind": "dev",
    "methods": {},
    "version": 1
  },
  "userdoc": {
    "kind": "user",
    "methods": {},
    "version": 1
  }
}